{
  "contractName": "DAO",
  "abi": [
    {
      "constant": true,
      "inputs": [
        {
          "name": "",
          "type": "address"
        }
      ],
      "name": "members",
      "outputs": [
        {
          "name": "name",
          "type": "string"
        }
      ],
      "payable": false,
      "stateMutability": "view",
      "type": "function",
      "signature": "0x08ae4b0c"
    },
    {
      "constant": true,
      "inputs": [],
      "name": "memberCount",
      "outputs": [
        {
          "name": "",
          "type": "uint256"
        }
      ],
      "payable": false,
      "stateMutability": "view",
      "type": "function",
      "signature": "0x11aee380"
    },
    {
      "constant": false,
      "inputs": [
        {
          "name": "name",
          "type": "string"
        }
      ],
      "name": "update",
      "outputs": [
        {
          "name": "",
          "type": "string"
        }
      ],
      "payable": false,
      "stateMutability": "nonpayable",
      "type": "function",
      "signature": "0x3d7403a3"
    },
    {
      "constant": false,
      "inputs": [
        {
          "name": "name",
          "type": "string"
        }
      ],
      "name": "signup",
      "outputs": [
        {
          "name": "",
          "type": "string"
        }
      ],
      "payable": false,
      "stateMutability": "nonpayable",
      "type": "function",
      "signature": "0x519c6377"
    },
    {
      "constant": false,
      "inputs": [],
      "name": "renounceOwnership",
      "outputs": [],
      "payable": false,
      "stateMutability": "nonpayable",
      "type": "function",
      "signature": "0x715018a6"
    },
    {
      "constant": false,
      "inputs": [],
      "name": "destroy",
      "outputs": [],
      "payable": false,
      "stateMutability": "nonpayable",
      "type": "function",
      "signature": "0x83197ef0"
    },
    {
      "constant": true,
      "inputs": [
        {
          "name": "",
          "type": "uint256"
        }
      ],
      "name": "tasks",
      "outputs": [
        {
          "name": "taskId",
          "type": "uint256"
        },
        {
          "name": "proposer",
          "type": "address"
        },
        {
          "name": "name",
          "type": "string"
        },
        {
          "name": "title",
          "type": "string"
        },
        {
          "name": "content",
          "type": "string"
        },
        {
          "name": "voteCount",
          "type": "uint256"
        },
        {
          "name": "nonconsensus",
          "type": "bool"
        },
        {
          "name": "finished",
          "type": "bool"
        }
      ],
      "payable": false,
      "stateMutability": "view",
      "type": "function",
      "signature": "0x8d977672"
    },
    {
      "constant": true,
      "inputs": [],
      "name": "owner",
      "outputs": [
        {
          "name": "",
          "type": "address"
        }
      ],
      "payable": false,
      "stateMutability": "view",
      "type": "function",
      "signature": "0x8da5cb5b"
    },
    {
      "constant": true,
      "inputs": [
        {
          "name": "",
          "type": "uint256"
        },
        {
          "name": "",
          "type": "address"
        }
      ],
      "name": "votedMap",
      "outputs": [
        {
          "name": "",
          "type": "uint256"
        }
      ],
      "payable": false,
      "stateMutability": "view",
      "type": "function",
      "signature": "0x8e16cd74"
    },
    {
      "constant": true,
      "inputs": [],
      "name": "login",
      "outputs": [
        {
          "name": "",
          "type": "string"
        }
      ],
      "payable": false,
      "stateMutability": "view",
      "type": "function",
      "signature": "0xb34e97e8"
    },
    {
      "constant": false,
      "inputs": [
        {
          "name": "_newOwner",
          "type": "address"
        }
      ],
      "name": "transferOwnership",
      "outputs": [],
      "payable": false,
      "stateMutability": "nonpayable",
      "type": "function",
      "signature": "0xf2fde38b"
    },
    {
      "constant": false,
      "inputs": [
        {
          "name": "_recipient",
          "type": "address"
        }
      ],
      "name": "destroyAndSend",
      "outputs": [],
      "payable": false,
      "stateMutability": "nonpayable",
      "type": "function",
      "signature": "0xf5074f41"
    },
    {
      "anonymous": false,
      "inputs": [],
      "name": "taskUpdated",
      "type": "event",
      "signature": "0xde2f26e64e31464820ea8c97f47d11d84f720ca552c9d905c0b24d3c255e4ba4"
    },
    {
      "anonymous": false,
      "inputs": [
        {
          "indexed": true,
          "name": "previousOwner",
          "type": "address"
        }
      ],
      "name": "OwnershipRenounced",
      "type": "event",
      "signature": "0xf8df31144d9c2f0f6b59d69b8b98abd5459d07f2742c4df920b25aae33c64820"
    },
    {
      "anonymous": false,
      "inputs": [
        {
          "indexed": true,
          "name": "previousOwner",
          "type": "address"
        },
        {
          "indexed": true,
          "name": "newOwner",
          "type": "address"
        }
      ],
      "name": "OwnershipTransferred",
      "type": "event",
      "signature": "0x8be0079c531659141344cd1fd0a4f28419497f9722a3daafe3b4186f6b6457e0"
    },
    {
      "constant": false,
      "inputs": [
        {
          "name": "title",
          "type": "string"
        },
        {
          "name": "content",
          "type": "string"
        }
      ],
      "name": "propose",
      "outputs": [],
      "payable": false,
      "stateMutability": "nonpayable",
      "type": "function",
      "signature": "0x1c4afc57"
    },
    {
      "constant": false,
      "inputs": [
        {
          "name": "taskId",
          "type": "uint256"
        },
        {
          "name": "agree",
          "type": "bool"
        }
      ],
      "name": "vote",
      "outputs": [],
      "payable": false,
      "stateMutability": "nonpayable",
      "type": "function",
      "signature": "0xc9d27afe"
    },
    {
      "constant": false,
      "inputs": [
        {
          "name": "taskId",
          "type": "uint256"
        }
      ],
      "name": "remove",
      "outputs": [],
      "payable": false,
      "stateMutability": "nonpayable",
      "type": "function",
      "signature": "0x4cc82215"
    },
    {
      "constant": true,
      "inputs": [
        {
          "name": "taskId",
          "type": "uint256"
        }
      ],
      "name": "getVoted",
      "outputs": [
        {
          "name": "",
          "type": "address[]"
        }
      ],
      "payable": false,
      "stateMutability": "view",
      "type": "function",
      "signature": "0xaa33ab1b"
    },
    {
      "constant": true,
      "inputs": [],
      "name": "getTaskCount",
      "outputs": [
        {
          "name": "",
          "type": "uint256"
        }
      ],
      "payable": false,
      "stateMutability": "view",
      "type": "function",
      "signature": "0xc17a340e"
    }
  ],
  "bytecode": "0x6080604052336000806101000a81548173ffffffffffffffffffffffffffffffffffffffff021916908373ffffffffffffffffffffffffffffffffffffffff160217905550612993806100536000396000f3006080604052600436106100f1576000357c0100000000000000000000000000000000000000000000000000000000900463ffffffff16806308ae4b0c146100f657806311aee380146101b25780631c4afc57146101dd5780633d7403a31461028c5780634cc822151461036e578063519c63771461039b578063715018a61461047d57806383197ef0146104945780638d977672146104ab5780638da5cb5b146106805780638e16cd74146106d7578063aa33ab1b14610738578063b34e97e8146107ba578063c17a340e1461084a578063c9d27afe14610875578063f2fde38b146108ae578063f5074f41146108f1575b600080fd5b34801561010257600080fd5b50610137600480360381019080803573ffffffffffffffffffffffffffffffffffffffff169060200190929190505050610934565b6040518080602001828103825283818151815260200191508051906020019080838360005b8381101561017757808201518184015260208101905061015c565b50505050905090810190601f1680156101a45780820380516001836020036101000a031916815260200191505b509250505060405180910390f35b3480156101be57600080fd5b506101c76109ea565b6040518082815260200191505060405180910390f35b3480156101e957600080fd5b5061028a600480360381019080803590602001908201803590602001908080601f0160208091040260200160405190810160405280939291908181526020018383808284378201915050505050509192919290803590602001908201803590602001908080601f01602080910402602001604051908101604052809392919081815260200183838082843782019150505050505091929192905050506109f0565b005b34801561029857600080fd5b506102f3600480360381019080803590602001908201803590602001908080601f0160208091040260200160405190810160405280939291908181526020018383808284378201915050505050509192919290505050610d6f565b6040518080602001828103825283818151815260200191508051906020019080838360005b83811015610333578082015181840152602081019050610318565b50505050905090810190601f1680156103605780820380516001836020036101000a031916815260200191505b509250505060405180910390f35b34801561037a57600080fd5b506103996004803603810190808035906020019092919050505061105b565b005b3480156103a757600080fd5b50610402600480360381019080803590602001908201803590602001908080601f01602080910402602001604051908101604052809392919081815260200183838082843782019150505050505091929192905050506113e1565b6040518080602001828103825283818151815260200191508051906020019080838360005b83811015610442578082015181840152602081019050610427565b50505050905090810190601f16801561046f5780820380516001836020036101000a031916815260200191505b509250505060405180910390f35b34801561048957600080fd5b506104926116ec565b005b3480156104a057600080fd5b506104a96117ee565b005b3480156104b757600080fd5b506104d660048036038101908080359060200190929190505050611883565b604051808981526020018873ffffffffffffffffffffffffffffffffffffffff1673ffffffffffffffffffffffffffffffffffffffff168152602001806020018060200180602001878152602001861515151581526020018515151515815260200184810384528a818151815260200191508051906020019080838360005b83811015610570578082015181840152602081019050610555565b50505050905090810190601f16801561059d5780820380516001836020036101000a031916815260200191505b50848103835289818151815260200191508051906020019080838360005b838110156105d65780820151818401526020810190506105bb565b50505050905090810190601f1680156106035780820380516001836020036101000a031916815260200191505b50848103825288818151815260200191508051906020019080838360005b8381101561063c578082015181840152602081019050610621565b50505050905090810190601f1680156106695780820380516001836020036101000a031916815260200191505b509b50505050505050505050505060405180910390f35b34801561068c57600080fd5b50610695611adc565b604051808273ffffffffffffffffffffffffffffffffffffffff1673ffffffffffffffffffffffffffffffffffffffff16815260200191505060405180910390f35b3480156106e357600080fd5b5061072260048036038101908080359060200190929190803573ffffffffffffffffffffffffffffffffffffffff169060200190929190505050611b01565b6040518082815260200191505060405180910390f35b34801561074457600080fd5b5061076360048036038101908080359060200190929190505050611b26565b6040518080602001828103825283818151815260200191508051906020019060200280838360005b838110156107a657808201518184015260208101905061078b565b505050509050019250505060405180910390f35b3480156107c657600080fd5b506107cf611e0d565b6040518080602001828103825283818151815260200191508051906020019080838360005b8381101561080f5780820151818401526020810190506107f4565b50505050905090810190601f16801561083c5780820380516001836020036101000a031916815260200191505b509250505060405180910390f35b34801561085657600080fd5b5061085f611fbe565b6040518082815260200191505060405180910390f35b34801561088157600080fd5b506108ac60048036038101908080359060200190929190803515159060200190929190505050612099565b005b3480156108ba57600080fd5b506108ef600480360381019080803573ffffffffffffffffffffffffffffffffffffffff169060200190929190505050612604565b005b3480156108fd57600080fd5b50610932600480360381019080803573ffffffffffffffffffffffffffffffffffffffff16906020019092919050505061266b565b005b6001602052806000526040600020600091509050806000018054600181600116156101000203166002900480601f0160208091040260200160405190810160405280929190818152602001828054600181600116156101000203166002900480156109e05780601f106109b5576101008083540402835291602001916109e0565b820191906000526020600020905b8154815290600101906020018083116109c357829003601f168201915b5050505050905081565b60025481565b600080600160003373ffffffffffffffffffffffffffffffffffffffff1673ffffffffffffffffffffffffffffffffffffffff16815260200190815260200160002060000180546001816001161561010002031660029004905014151515610ac0576040517f08c379a00000000000000000000000000000000000000000000000000000000081526004018080602001828103825260148152602001807f596f7520617265206e6f742061206d656d62657200000000000000000000000081525060200191505060405180910390fd5b6001600361010060405190810160405280600081526020013373ffffffffffffffffffffffffffffffffffffffff168152602001600160003373ffffffffffffffffffffffffffffffffffffffff1673ffffffffffffffffffffffffffffffffffffffff1681526020019081526020016000206000018054600181600116156101000203166002900480601f016020809104026020016040519081016040528092919081815260200182805460018160011615610100020316600290048015610bca5780601f10610b9f57610100808354040283529160200191610bca565b820191906000526020600020905b815481529060010190602001808311610bad57829003601f168201915b505050505081526020018681526020018581526020016000815260200160001515815260200160001515815250908060018154018082558091505090600182039060005260206000209060070201600090919290919091506000820151816000015560208201518160010160006101000a81548173ffffffffffffffffffffffffffffffffffffffff021916908373ffffffffffffffffffffffffffffffffffffffff1602179055506040820151816002019080519060200190610c8f9291906127d9565b506060820151816003019080519060200190610cac9291906127d9565b506080820151816004019080519060200190610cc99291906127d9565b5060a0820151816005015560c08201518160060160006101000a81548160ff02191690831515021790555060e08201518160060160016101000a81548160ff021916908315150217905550505003905080600382815481101515610d2957fe5b9060005260206000209060070201600001819055507fde2f26e64e31464820ea8c97f47d11d84f720ca552c9d905c0b24d3c255e4ba460405160405180910390a1505050565b6060816000815114151515610dec576040517f08c379a000000000000000000000000000000000000000000000000000000000815260040180806020018281038252600c8152602001807f496e76616c6964206e616d65000000000000000000000000000000000000000081525060200191505060405180910390fd5b6000600160003373ffffffffffffffffffffffffffffffffffffffff1673ffffffffffffffffffffffffffffffffffffffff16815260200190815260200160002060000180546001816001161561010002031660029004905014151515610ebb576040517f08c379a00000000000000000000000000000000000000000000000000000000081526004018080602001828103825260148152602001807f596f7520617265206e6f742061206d656d62657200000000000000000000000081525060200191505060405180910390fd5b6000600160003373ffffffffffffffffffffffffffffffffffffffff1673ffffffffffffffffffffffffffffffffffffffff1681526020019081526020016000206000018054600181600116156101000203166002900490501415156110545782600160003373ffffffffffffffffffffffffffffffffffffffff1673ffffffffffffffffffffffffffffffffffffffff1681526020019081526020016000206000019080519060200190610f71929190612859565b50600160003373ffffffffffffffffffffffffffffffffffffffff1673ffffffffffffffffffffffffffffffffffffffff1681526020019081526020016000206000018054600181600116156101000203166002900480601f0160208091040260200160405190810160405280929190818152602001828054600181600116156101000203166002900480156110485780601f1061101d57610100808354040283529160200191611048565b820191906000526020600020905b81548152906001019060200180831161102b57829003601f168201915b50505050509150611055565b5b50919050565b6000600160003373ffffffffffffffffffffffffffffffffffffffff1673ffffffffffffffffffffffffffffffffffffffff1681526020019081526020016000206000018054600181600116156101000203166002900490501415151561112a576040517f08c379a00000000000000000000000000000000000000000000000000000000081526004018080602001828103825260148152602001807f596f7520617265206e6f742061206d656d62657200000000000000000000000081525060200191505060405180910390fd5b80600060038281548110151561113c57fe5b9060005260206000209060070201600301805460018160011615610100020316600290049050141515156111d8576040517f08c379a00000000000000000000000000000000000000000000000000000000081526004018080602001828103825260138152602001807f5461736b20646f6573206e6f742065786973740000000000000000000000000081525060200191505060405180910390fd5b813373ffffffffffffffffffffffffffffffffffffffff166003828154811015156111ff57fe5b906000526020600020906007020160010160009054906101000a900473ffffffffffffffffffffffffffffffffffffffff1673ffffffffffffffffffffffffffffffffffffffff161415156112e2576040517f08c379a00000000000000000000000000000000000000000000000000000000081526004018080602001828103825260268152602001807f4d656d626572206973206e6f74207468652070726f706f736572206f6620746881526020017f65207461736b000000000000000000000000000000000000000000000000000081525060400191505060405180910390fd5b6003838154811015156112f157fe5b90600052602060002090600702016000808201600090556001820160006101000a81549073ffffffffffffffffffffffffffffffffffffffff021916905560028201600061133f91906128d9565b60038201600061134f91906128d9565b60048201600061135f91906128d9565b60058201600090556006820160006101000a81549060ff02191690556006820160016101000a81549060ff021916905550506005600084815260200190815260200160002060006113b09190612921565b7fde2f26e64e31464820ea8c97f47d11d84f720ca552c9d905c0b24d3c255e4ba460405160405180910390a1505050565b606081600081511415151561145e576040517f08c379a000000000000000000000000000000000000000000000000000000000815260040180806020018281038252600c8152602001807f496e76616c6964206e616d65000000000000000000000000000000000000000081525060200191505060405180910390fd5b6000600160003373ffffffffffffffffffffffffffffffffffffffff1673ffffffffffffffffffffffffffffffffffffffff16815260200190815260200160002060000180546001816001161561010002031660029004905014156116085782600160003373ffffffffffffffffffffffffffffffffffffffff1673ffffffffffffffffffffffffffffffffffffffff1681526020019081526020016000206000019080519060200190611513929190612859565b50600260008154809291906001019190505550600160003373ffffffffffffffffffffffffffffffffffffffff1673ffffffffffffffffffffffffffffffffffffffff1681526020019081526020016000206000018054600181600116156101000203166002900480601f0160208091040260200160405190810160405280929190818152602001828054600181600116156101000203166002900480156115fc5780601f106115d1576101008083540402835291602001916115fc565b820191906000526020600020905b8154815290600101906020018083116115df57829003601f168201915b505050505091506116e6565b600160003373ffffffffffffffffffffffffffffffffffffffff1673ffffffffffffffffffffffffffffffffffffffff1681526020019081526020016000206000018054600181600116156101000203166002900480601f0160208091040260200160405190810160405280929190818152602001828054600181600116156101000203166002900480156116de5780601f106116b3576101008083540402835291602001916116de565b820191906000526020600020905b8154815290600101906020018083116116c157829003601f168201915b505050505091505b50919050565b6000809054906101000a900473ffffffffffffffffffffffffffffffffffffffff1673ffffffffffffffffffffffffffffffffffffffff163373ffffffffffffffffffffffffffffffffffffffff1614151561174757600080fd5b6000809054906101000a900473ffffffffffffffffffffffffffffffffffffffff1673ffffffffffffffffffffffffffffffffffffffff167ff8df31144d9c2f0f6b59d69b8b98abd5459d07f2742c4df920b25aae33c6482060405160405180910390a260008060006101000a81548173ffffffffffffffffffffffffffffffffffffffff021916908373ffffffffffffffffffffffffffffffffffffffff160217905550565b6000809054906101000a900473ffffffffffffffffffffffffffffffffffffffff1673ffffffffffffffffffffffffffffffffffffffff163373ffffffffffffffffffffffffffffffffffffffff1614151561184957600080fd5b6000809054906101000a900473ffffffffffffffffffffffffffffffffffffffff1673ffffffffffffffffffffffffffffffffffffffff16ff5b60038181548110151561189257fe5b90600052602060002090600702016000915090508060000154908060010160009054906101000a900473ffffffffffffffffffffffffffffffffffffffff1690806002018054600181600116156101000203166002900480601f01602080910402602001604051908101604052809291908181526020018280546001816001161561010002031660029004801561196a5780601f1061193f5761010080835404028352916020019161196a565b820191906000526020600020905b81548152906001019060200180831161194d57829003601f168201915b505050505090806003018054600181600116156101000203166002900480601f016020809104026020016040519081016040528092919081815260200182805460018160011615610100020316600290048015611a085780601f106119dd57610100808354040283529160200191611a08565b820191906000526020600020905b8154815290600101906020018083116119eb57829003601f168201915b505050505090806004018054600181600116156101000203166002900480601f016020809104026020016040519081016040528092919081815260200182805460018160011615610100020316600290048015611aa65780601f10611a7b57610100808354040283529160200191611aa6565b820191906000526020600020905b815481529060010190602001808311611a8957829003601f168201915b5050505050908060050154908060060160009054906101000a900460ff16908060060160019054906101000a900460ff16905088565b6000809054906101000a900473ffffffffffffffffffffffffffffffffffffffff1681565b6004602052816000526040600020602052806000526040600020600091509150505481565b6060816000600382815481101515611b3a57fe5b906000526020600020906007020160030180546001816001161561010002031660029004905014151515611bd6576040517f08c379a00000000000000000000000000000000000000000000000000000000081526004018080602001828103825260138152602001807f5461736b20646f6573206e6f742065786973740000000000000000000000000081525060200191505060405180910390fd5b6000600160003373ffffffffffffffffffffffffffffffffffffffff1673ffffffffffffffffffffffffffffffffffffffff16815260200190815260200160002060000180546001816001161561010002031660029004905014151515611ca5576040517f08c379a00000000000000000000000000000000000000000000000000000000081526004018080602001828103825260148152602001807f596f7520617265206e6f742061206d656d62657200000000000000000000000081525060200191505060405180910390fd5b600383815481101515611cb457fe5b906000526020600020906007020160060160019054906101000a900460ff161515611d6d576040517f08c379a00000000000000000000000000000000000000000000000000000000081526004018080602001828103825260248152602001807f566f74696e67206f6e2074686973207461736b20686173206e6f742066696e6981526020017f736865640000000000000000000000000000000000000000000000000000000081525060400191505060405180910390fd5b60056000848152602001908152602001600020805480602002602001604051908101604052809291908181526020018280548015611e0057602002820191906000526020600020905b8160009054906101000a900473ffffffffffffffffffffffffffffffffffffffff1673ffffffffffffffffffffffffffffffffffffffff1681526020019060010190808311611db6575b5050505050915050919050565b60606000600160003373ffffffffffffffffffffffffffffffffffffffff1673ffffffffffffffffffffffffffffffffffffffff16815260200190815260200160002060000180546001816001161561010002031660029004905014151515611ede576040517f08c379a00000000000000000000000000000000000000000000000000000000081526004018080602001828103825260148152602001807f596f7520617265206e6f742061206d656d62657200000000000000000000000081525060200191505060405180910390fd5b600160003373ffffffffffffffffffffffffffffffffffffffff1673ffffffffffffffffffffffffffffffffffffffff1681526020019081526020016000206000018054600181600116156101000203166002900480601f016020809104026020016040519081016040528092919081815260200182805460018160011615610100020316600290048015611fb45780601f10611f8957610100808354040283529160200191611fb4565b820191906000526020600020905b815481529060010190602001808311611f9757829003601f168201915b5050505050905090565b600080600160003373ffffffffffffffffffffffffffffffffffffffff1673ffffffffffffffffffffffffffffffffffffffff1681526020019081526020016000206000018054600181600116156101000203166002900490501415151561208e576040517f08c379a00000000000000000000000000000000000000000000000000000000081526004018080602001828103825260148152602001807f596f7520617265206e6f742061206d656d62657200000000000000000000000081525060200191505060405180910390fd5b600380549050905090565b6000600160003373ffffffffffffffffffffffffffffffffffffffff1673ffffffffffffffffffffffffffffffffffffffff16815260200190815260200160002060000180546001816001161561010002031660029004905014151515612168576040517f08c379a00000000000000000000000000000000000000000000000000000000081526004018080602001828103825260148152602001807f596f7520617265206e6f742061206d656d62657200000000000000000000000081525060200191505060405180910390fd5b81600060038281548110151561217a57fe5b906000526020600020906007020160030180546001816001161561010002031660029004905014151515612216576040517f08c379a00000000000000000000000000000000000000000000000000000000081526004018080602001828103825260138152602001807f5461736b20646f6573206e6f742065786973740000000000000000000000000081525060200191505060405180910390fd5b8260038181548110151561222657fe5b906000526020600020906007020160060160019054906101000a900460ff161515156122ba576040517f08c379a00000000000000000000000000000000000000000000000000000000081526004018080602001828103825260208152602001807f566f74696e67206f6e2074686973207461736b206861732066696e697368656481525060200191505060405180910390fd5b60006004600083815260200190815260200160002060003373ffffffffffffffffffffffffffffffffffffffff1673ffffffffffffffffffffffffffffffffffffffff168152602001908152602001600020541415156123a8576040517f08c379a00000000000000000000000000000000000000000000000000000000081526004018080602001828103825260258152602001807f4d656d6265722068617320616c726561647920766f746564206f6e207468697381526020017f207461736b00000000000000000000000000000000000000000000000000000081525060400191505060405180910390fd5b8215156124435760016003858154811015156123c057fe5b906000526020600020906007020160060160006101000a81548160ff02191690831515021790555060026004600086815260200190815260200160002060003373ffffffffffffffffffffffffffffffffffffffff1673ffffffffffffffffffffffffffffffffffffffff1681526020019081526020016000208190555061249a565b60016004600086815260200190815260200160002060003373ffffffffffffffffffffffffffffffffffffffff1673ffffffffffffffffffffffffffffffffffffffff168152602001908152602001600020819055505b6003848154811015156124a957fe5b906000526020600020906007020160050160008154809291906001019190505550600560008581526020019081526020016000203390806001815401808255809150509060018203906000526020600020016000909192909190916101000a81548173ffffffffffffffffffffffffffffffffffffffff021916908373ffffffffffffffffffffffffffffffffffffffff160217905550507fde2f26e64e31464820ea8c97f47d11d84f720ca552c9d905c0b24d3c255e4ba460405160405180910390a160025460038581548110151561257f57fe5b9060005260206000209060070201600501541015156125fe5760016003858154811015156125a957fe5b906000526020600020906007020160060160016101000a81548160ff0219169083151502179055507fde2f26e64e31464820ea8c97f47d11d84f720ca552c9d905c0b24d3c255e4ba460405160405180910390a15b50505050565b6000809054906101000a900473ffffffffffffffffffffffffffffffffffffffff1673ffffffffffffffffffffffffffffffffffffffff163373ffffffffffffffffffffffffffffffffffffffff1614151561265f57600080fd5b612668816126df565b50565b6000809054906101000a900473ffffffffffffffffffffffffffffffffffffffff1673ffffffffffffffffffffffffffffffffffffffff163373ffffffffffffffffffffffffffffffffffffffff161415156126c657600080fd5b8073ffffffffffffffffffffffffffffffffffffffff16ff5b600073ffffffffffffffffffffffffffffffffffffffff168173ffffffffffffffffffffffffffffffffffffffff161415151561271b57600080fd5b8073ffffffffffffffffffffffffffffffffffffffff166000809054906101000a900473ffffffffffffffffffffffffffffffffffffffff1673ffffffffffffffffffffffffffffffffffffffff167f8be0079c531659141344cd1fd0a4f28419497f9722a3daafe3b4186f6b6457e060405160405180910390a3806000806101000a81548173ffffffffffffffffffffffffffffffffffffffff021916908373ffffffffffffffffffffffffffffffffffffffff16021790555050565b828054600181600116156101000203166002900490600052602060002090601f016020900481019282601f1061281a57805160ff1916838001178555612848565b82800160010185558215612848579182015b8281111561284757825182559160200191906001019061282c565b5b5090506128559190612942565b5090565b828054600181600116156101000203166002900490600052602060002090601f016020900481019282601f1061289a57805160ff19168380011785556128c8565b828001600101855582156128c8579182015b828111156128c75782518255916020019190600101906128ac565b5b5090506128d59190612942565b5090565b50805460018160011615610100020316600290046000825580601f106128ff575061291e565b601f01602090049060005260206000209081019061291d9190612942565b5b50565b508054600082559060005260206000209081019061293f9190612942565b50565b61296491905b80821115612960576000816000905550600101612948565b5090565b905600a165627a7a72305820fccfdc7719ad74a2480518fd708c37f5dd2a88312078c2aeb3176562fa0c655a0029",
  "source": "pragma solidity ^0.4.23;\n\nimport \"./Authentication.sol\";\n\n/// @title A decentralized organization with members, tasks, and voting.\n/// @author Dennis Liu\ncontract DAO is Authentication {\nusing SafeMath for uint256;\n\n    // type for a single task\n    struct Task {\n        uint taskId;\n        address proposer; // address who proposed the task \n        string name; // member name who proposed the task\n        string title;  // task name\n        string content; // task detail\n        uint256 voteCount; // number of accumulated votes\n        bool nonconsensus; // bool to signal that someone voted no\n        bool finished; // bool to signal voting has finished\n    }\n\n    // A dynamically-sized array of `Task` structs.\n    Task[] public tasks;\n\n    // Lists each task's voted members\n    // Use a uint to represent 3 states, 0: unvoted; 1: yes; 2: no\n    mapping(uint => mapping (address => uint)) public votedMap;\n    mapping(uint => address[]) private votedList;\n\n    modifier taskVotable(uint taskId) {\n        // Check if the task can be voted on\n\n        require(!tasks[taskId].finished, \"Voting on this task has finished\");\n        require(votedMap[taskId][msg.sender] == 0, \"Member has already voted on this task\");\n        _;\n    }\n\n    modifier taskExists(uint taskId) {\n        // Check if the task exists\n\n        require(bytes(tasks[taskId].title).length != 0, \"Task does not exist\");\n        _;\n    }\n\n    modifier onlyProposer(uint taskId) {\n        // Check if member is the proposer of the task\n\n        require(tasks[taskId].proposer == msg.sender, \"Member is not the proposer of the task\");\n        _;\n    }\n\n    event taskUpdated();\n    // event newTask(uint taskId, address proposer, string name, string title, string content);\n    // event newVote(uint taskId, uint voteCount);\n    // event voteFinished(uint taskId, bool approved);\n    // event taskRemoved(uint taskId);\n\n    /// @notice Propose a new task\n    /// @notice Only existing user addresses can propose a task. proposer doesn't have to vote yes for their tasks\n    /// @param  title title of the proposed task\n    /// @param  content content of the proposed task\n    function propose(string title, string content) public onlyExistingMember {\n        \n        // push returns new length, hence the new task's ID is length - 1 \n        uint taskId = tasks.push(Task(0, msg.sender, members[msg.sender].name, title, content, 0, false, false)) - 1;\n        tasks[taskId].taskId = taskId;\n        emit taskUpdated();\n        // emit newTask(taskId, msg.sender, members[msg.sender].name, title, content);\n    }\n\n    /// @notice Vote on a task by its id\n    /// @notice If anyone votes no, the task will be disapproved when voting is finished\n    /// @param  taskId index of the task in tasks array\n    /// @param  agree boolean of true or false signifying yes or no vote\n    function vote(uint taskId, bool agree) public onlyExistingMember taskExists(taskId) taskVotable(taskId) {\n        \n        // if anyone votes no, there will be no consensus in the end\n        if (!agree) {\n            tasks[taskId].nonconsensus = true;\n            votedMap[taskId][msg.sender] = 2; // 2 maps to no\n        } else {\n            votedMap[taskId][msg.sender] = 1; // 1 maps to yes\n        }\n        tasks[taskId].voteCount++;\n        votedList[taskId].push(msg.sender);\n        emit taskUpdated();\n        // emit newVote(taskId, tasks[taskId].voteCount);\n        \n        // set task as finished emit voteFinished event when all members have voted\n        if (tasks[taskId].voteCount >= memberCount) {\n            tasks[taskId].finished = true;\n            emit taskUpdated();\n            // emit voteFinished(taskId, !tasks[taskId].nonconsensus);\n        }\n    }\n\n    /// @notice Remove a disapproved task\n    /// @notice Only the owner of the task \n    /// @param  taskId index of the task in tasks array\n    function remove(uint taskId) public onlyExistingMember taskExists(taskId) onlyProposer(taskId) {\n        delete tasks[taskId];\n        delete votedList[taskId];\n        emit taskUpdated();\n        // emit taskRemoved(taskId);\n    }\n    \n    /// @notice Return voted members for a task after its voting is finished\n    /// @notice This prevents member's votes being influenced by existing votes\n    /// @param taskId index of the task in tasks array\n    /// @return voted member addresses in an array\n    function getVoted(uint taskId) public view taskExists(taskId) onlyExistingMember returns (address[]) {\n        require(tasks[taskId].finished, \"Voting on this task has not finished\");\n        return votedList[taskId];\n    }\n    \n    function getTaskCount() public view onlyExistingMember returns (uint) {\n      return tasks.length;\n    } \n}",
  "sourcePath": "/Users/shuxuanliu/Github/daory/contracts/DAO.sol",
  "compiler": {
    "name": "solc",
    "version": "0.4.24+commit.e67f0147.Emscripten.clang"
  },
  "schemaVersion": "3.0.0-beta.0",
  "updatedAt": "2018-09-14T17:14:05.491Z"
}